:020000040000FA
:060000000A128A110E280D
:10000800FE00030EF3000408F4000A08F5000A12C3
:100018008A115C280A128A1111288317F030FD0012
:100028000130FE002D30FF00903084000A128A1142
:1000380050220A128A118313C030FD000230FE00DC
:100048000230FF00A03084000A128A1150220A12DE
:100058008A115E30FD000130FE008D30FF00203037
:1000680084000A128A1150220A128A110A128A116D
:100078007C220A128A11F6000A128A117D220A12BB
:100088008A11F7000A128A117E220A128A11F800D0
:100098000A128A117F220A128A11F9000A128A1199
:1000A80080220A128A11FA0083010A128A11CB29C6
:1000B800831203138C1E6128622824290C309900AE
:1000C80031301A06031D69286A2894287C28780884
:1000D800FF3EF0007008F8007808403E8400831363
:1000E80000088312031399005330F000F00B7A28AC
:1000F8007808031D802881286B280430F200CF304F
:10010800F1000130F000F00B8728F10B8728F20B83
:1001180087288E28FA01FA0A1E30F0007008F800C5
:100128003230831203131A06031D9B289C28DD28EE
:10013800AE287708FF3EF0007008F7007708203EE9
:100148008400831300088312031399005330F000CE
:10015800F00BAC287708031DB228B3289D280D3072
:10016800831203139900D22832301A060319BD28C6
:10017800BE28D2281A0899001A0885000230F20011
:10018800E730F1000030F000F00BC828F10BC82868
:10019800F20BC8280000831203139A011A08031DE2
:1001A800D628D728B828FA01FA0A2030F0007008B3
:1001B800F70033301A06031DE228E3282429F5281E
:1001C8007608FF3EF0007008F6007608A03E84002E
:1001D800831300088312031399005330F000F00BC7
:1001E800F3287608031DF928FA28E4280D3083122D
:1001F80003139900192933301A060319042905290C
:1002080019291A0899001A0886000230F200E73006
:10021800F1000030F000F00B0F29F10B0F29F20B61
:100228000F290000831203139A011A08031D1D29C0
:100238001E29FF28FA01FA0A2030F0007008F6009B
:1002480075088A0074088400730E8300FE0E7E0E03
:1002580009004234543452344F3450342034723408
:100268006134693462346D34613443342034293460
:10027800333428340D344134543452344F345034E8
:10028800203472346134693462346D3461344334F7
:1002980020342934323428340D34733465347234BC
:1002A80065347434633461347234613463342034B3
:1002B80065346434203461346E34653464346134B4
:1002C8006334203472346134673465346C34703488
:1002D80073346534443420342934313428340D34AB
:1002E8007234613474347534633465346A34653413
:1002F80020346134653473346534643420346E34A6
:100308006F3469346334633461342034653475344C
:1003180051344134543452344F34503420346E34D0
:10032800653420347234653474346334613472341F
:100338006134633420346F347634653475346E3404
:1003480020347234613473346534723467346E34F3
:1003580049342E342E342E34663465346434633490
:10036800623461340D3473346534723465347434F2
:1003780063346134723461346334203465346434F2
:10038800203461346E3465346434613443340A1281
:100398008A1122220A128A11831203130C1ED529EC
:1003A800D629D0297A03031DDA29DB29D0290C3074
:1003B8009900F2297908FF3E83120313DE005E08D4
:1003C800F9007908903E840083170008990052309C
:1003D80083120313DE00DE0BEF2900007908031DEA
:1003E800F629F729DE29FA01603083120313DE00AB
:1003F8005E08F900D0290A128A110E2842345434B2
:1004080052344F34503420346E34653420347234CE
:100418006534743463346134723461346334203441
:100428006F347634653475346E3420347234613404
:1004380073346534723467346E3449340A128A115D
:100448005F220A128A110A128A1175220A128A1167
:100458000A128A1137220A128A110A128A116C2288
:100468000A128A1108008316031318121815831626
:100478000317871519308316031399009A018312FD
:1004880003139817181318168316031398160800E1
:100498007E088A007F0882000A128A114C220A12FA
:1004A8008A118000840A04087D0603190034FF0AB3
:1004B8000319FE0A502A8316031789018801831637
:1004C8000313850186018312031385018601080041
:1004D8008B170B17831603138C16831203138C12B6
:1004E8000800831603130F178F120F120F1408003A
:0A04F800203420341E346034013437
:04400E00D430FF3F6C
:00000001FF
