:020000040000FA
:060000000A128A110E280D
:10000800FE00030EF3000408F4000A08F5000A12C3
:100018008A115C280A128A1111288317F030FD0012
:100028000130FE003330FF00903084000A128A113C
:1000380056220A128A118313C030FD000230FE00D6
:100048000830FF00A03084000A128A1156220A12D2
:100058008A115E30FD000130FE009330FF00203031
:1000680084000A128A1156220A128A110A128A1167
:1000780082220A128A11F6000A128A1183220A12AF
:100088008A11F7000A128A1184220A128A11F800CA
:100098000A128A1185220A128A11F9000A128A1193
:1000A80086220A128A11FA0083010A128A11D129BA
:1000B800831203138C1E612862282A2931301A06FC
:1000C800031D6728682894280C3099007C28780834
:1000D800FF3EF0007008F8007808403E8400831363
:1000E80000088312031399005330F000F00B7A28AC
:1000F8007808031D802881286B280430F200CF304F
:10010800F1000130F000F00B8728F10B8728F20B83
:1001180087288E28FA01FA0A1E30F0007008F800C5
:100128003230831203131A06031D9B289C28E028EB
:100138000C309900B0287708FF3EF0007008F700EF
:100148007708203E84008313000883120313990064
:100158005330F000F00BAE287708031DB428B528FB
:100168009F280D3083120313990001309A00D52877
:100178001A030319C028C128D5281A0899001A0893
:1001880085000230F200E730F1000030F000F00B9B
:10019800CB28F10BCB28F20BCB28000083120313DA
:1001A8009A011A08031DD928DA28BC28FA01FA0A84
:1001B8002030F0007008F70033301A06031DE528D8
:1001C800E6282A290C309900FA287608FF3EF00024
:1001D8007008F6007608A03E840083130008831296
:1001E800031399005330F000F00BF8287608031D2C
:1001F800FE28FF28E9280D308312031399000130E7
:100208009A001F291A0303190A290B291F291A08FA
:1002180099001A0886000230F200E730F100003039
:10022800F000F00B1529F10B1529F20B1529000028
:10023800831203139A011A08031D23292429062966
:10024800FA01FA0A2030F0007008F60075088A00F2
:1002580074088400730E8300FE0E7E0E090042347B
:10026800543452344F345034203472346134693445
:1002780062346D34613443342034293433342834BF
:100288000D344134543452344F34503420347234A1
:100298006134693462346D34613443342034293430
:1002A800323428340D34733465347234653474341C
:1002B80063346134723461346334203465346434B3
:1002C800203461346E3465346434613463342034EA
:1002D80072346134673465346C3470347334653423
:1002E800443420342934313428340D3472346134A0
:1002F80074347534633465346A3465342034613455
:10030800653473346534643420346E346F3469343E
:100318006334633461342034653475345134413482
:10032800543452344F34503420346E3465342034CD
:1003380072346534743463346134723461346334D0
:1003480020346F347634653475346E342034723426
:10035800613473346534723467346E3449342E34FE
:100368002E342E3466346534643463346234613434
:100378000D347334653472346534743463346134E1
:100388007234613463342034653464342034613425
:100398006E3465346434613443340A128A11282275
:1003A8000A128A11831203130C1EDB29DC29D629B1
:1003B8007A03031DE029E129D6290C309900F82990
:1003C8007908FF3E83120313DE005E08F9007908FE
:1003D800903E84008317000899005230831203135B
:1003E800DE00DE0BF52900007908031DFC29FD2934
:1003F800E429FA01603083120313DE005E08F90075
:10040800D6290A128A110E284234543452344F34F1
:10041800503420346E346534203472346534743486
:100428006334613472346134633420346F34763425
:10043800653475346E342034723461347334653401
:10044800723467346E3449340A128A1165220A12EA
:100458008A110A128A117B220A128A110A128A1137
:100468003D220A128A110A128A1172220A128A116C
:100478000800831603131812181583160317871517
:1004880019308316031399009A01831203139817DE
:100498001813181683160313981608007E088A0086
:1004A8007F0882000A128A1152220A128A118000D9
:1004B800840A04087D0603190034FF0A0319FE0A9A
:1004C800562A8316031789018801831603138501A9
:1004D8008601831203138501860108008B170B1709
:1004E800831603138C16831203138C1208008316C9
:1004F80003130F178F120F120F1408002034203423
:060508001E3460340134D2
:04400E00D430FF3F6C
:00000001FF
