:060000000A128A11182A01
:10020000831603178801890183160313850183125E
:100210000313850A0C210929C83081001221810BA2
:100220000E290800F9308000800B1429080008000E
:100430008316031788018901831603138501FF3092
:10044000860087018801831203130030850087002E
:100450008800061C3422861C3B22061D4222861D73
:100460004922061E5022292A061C342A850A0030F9
:10047000051A85000800861C3B2A85030F30851A63
:1004800085000800061D422A870A0030071A8700E7
:100490000800861D492A87030F30871B8700080044
:0C04A000061E502A050807078800080007
:04400E00C130FF3F7F
:00000001FF
