:020000040000FA
:060000000A128A110C280F
:10000800FE00030EF1000A08F2000A128A11352BCD
:100018000A128A110F2883133830FD000630FE00BB
:10002800A530FF002D3084000A128A1155260A12C5
:100038008A11B801B901BA01BB01BC01BD01BE01F9
:10004800BF01F801F901FA0183010A128A112C286B
:100058000A128A11C6250A128A11831203139F14E1
:100068000C3099000C1E39283A2831293703031D12
:100078003E283F2892280C3099008930A000823011
:10008800A1000A128A1184250A128A110D308312DE
:10009800031399003530A0008230A1000A128A119A
:1000A80084250A128A110D308312031399006130D6
:1000B800A0008230A1000A128A1184250A128A112E
:1000C8000D30831203139900BD30A0008230A100C7
:1000D8000A128A1184250A128A110D308312031319
:1000E8009900A430A0008230A1000A128A11842548
:1000F8000A128A110D308312031399000D309900EA
:100108000030A0008230A1000A128A1184250A1248
:100118008A110D30831203139900B7013130390663
:10012800031D972898281929B801B80A0830A00093
:100138008330A1000A128A1184250A128A118312B7
:1001480003133C080A128A1139240A128A11D5307D
:1001580083120313A0008230A1000A128A11842599
:100168000A128A11831203133B080A128A113924CE
:100178000A128A11E83083120313A0008230A1000A
:100188000A128A1184250A128A11831203133A0863
:100198000A128A1139240A128A111730831203139A
:1001A800A0008330A1000A128A1184250A128A113C
:1001B800831203133D080A128A1139240A128A117C
:1001C800263083120313A0008330A1000A128A117B
:1001D80084250A128A11831203133E080A128A110F
:1001E80039240A128A11F83083120313A0008230CE
:1001F800A1000A128A1184250A128A118312031394
:100208003F080A128A1139240A128A11F630831219
:100218000313A0008230A1000A128A1184250A1251
:100228008A110D3083120313990032303906031DE9
:100238001E291F292129B801B80A33303906031DA0
:10024800262927292929B801B80A34303906031D77
:100258002E292F293129B801B80A9F1834293529A0
:1002680036281F0CAC002C0C0F39053A031D3D290C
:100278003E2942291F08C33918389F001F0CAC00BB
:100288002C0C0F39043A031D4A294B294F291F0802
:10029800C33914389F001F0CAC002C0C0F39033ADB
:1002A800031D572958295C291F08C33910389F0096
:1002B8001F0CAC002C0C0F39023A031D6429652968
:1002C80069291F08C3390C389F001F0CAC002C0C7F
:1002D8000F39013A031D7129722976291F08C3397C
:1002E80008389F001F0CAC002C0C0F39003A031D76
:1002F8007E297F2983291F08C33904389F001F0CD2
:10030800AC002C0C0F39063A031D8B298C298E2939
:10031800C3309F05033083120313AC00AC0B922942
:10032800831203139F1436280A128A110C28FF1B04
:10033800A52983137F1883170008840A0319FF0A65
:1003480008007F087F398A000408840A0319FF0A15
:02035800820021
:100400004E346F34743461343A34203450346134AF
:10041000723461342034733461346C34693472342E
:1004200020346434653420346334753461346C347E
:100430007134753469346534723420346F347034F7
:10044000633469346F346E342034703472346534FC
:10045000733469346F346E346134723420345334FD
:100460005034413443344534003431342934203459
:1004700044346534733470346C34653467346134B7
:100480007234203465346C342034763461346C3406
:100490006F34723420346434653420346C346F34F7
:1004A0007334203470346F34743465346E34633490
:1004B00069346F346D346534743472346F3473342A
:1004C00000343234293420344D346F346434693488
:1004D00066346934633461347234203465346C3486
:1004E0002034763461346C346F34723420346434A4
:1004F000653420346C346F347334203461346334A5
:1005000074347534613464346F34723465347334E4
:10051000003451347534653420346F3470346334AE
:1005200069346F346E342034643465347334653424
:100530006134203465346A3465346334753474341A
:10054000613472343F340034343429342034453437
:100550006A346534633475347434613472342034ED
:1005600075346E346134203470346F3473346934CC
:10057000633469346F346E340034333429342034B6
:1005800047347534613472346434613472342034E5
:1005900075346E346134203470346F34733469349C
:1005A000633469346F346E340034203420342034A2
:1005B0002034563461346C342034613472347434F1
:1005C000203463346F3464346F343A34203400346C
:1005D0002034203420342034563461346C342034B8
:1005E000703469346E347A3461343A3420340034EF
:1005F0002034203420342034563461346C34203498
:100600006D346F3474346F3472343A3420340034BF
:10061000563461346C342034613472347434203490
:1006200062346134733465343A3420340034203415
:10063000203420342034563461346C342034673410
:10064000693472346F343A34203400342034203426
:1006500020342034563461346C3420346C346534A6
:10066000643473343A3420340034831203130C1F7F
:100670003A2B3B2B8E2B1F0CF000700C0F39003ADD
:10068000031D432B442B482B1E08F0007008BC00B0
:100690001F0CF000700C0F39013A031D502B512B29
:1006A000552B1E08F0007008BB001F0CF000700CEA
:1006B0000F39023A031D5D2B5E2B622B1E08F000E2
:1006C0007008BA001F0CF000700C0F39033A031DBC
:1006D0006A2B6B2B6F2B1E08F0007008BD001F0CDF
:1006E000F000700C0F39043A031D772B782B7E2B0A
:1006F0001E0895001E08F0007008BE001F0CF000D8
:10070000700C0F39053A031D862B872B8D2B1E0885
:100710009B001E08F0007008BF000C138C1E912B6C
:10072000922BA92B3808031D962B972B9D2B1A086B
:10073000F0007008B9000C30990020301A06031D33
:10074000A22BA32BA92BB901B701B70AB8010C3012
:1007500099000B1DAC2BAD2B322C04307A06031DF7
:10076000B22BB32BB42BFA0103307A06031DB92B3D
:10077000BA2BD42B3A08F0000310700C873C810090
:100780000310061C03140318C62BCA2B8312031371
:100790000614CD2B83120313061086100B117A0852
:1007A000013EF0007008FA0002307A06031DD92BD2
:1007B000DA2BF42B3B08F0000310700C873C81000F
:1007C0000310861C03140318E62BEA2B8312031371
:1007D0008614ED2B83120313861006110B117A0871
:1007E000013EF0007008FA007A03031DF82BF92B84
:1007F000132C3C08F0000310700C873C81000310A0
:10080000061D03140318052C092C83120313061567
:100810000C2C83120313061186110B117A08013E6A
:10082000F0007008FA007A08031D172C182C322CDF
:100830003D08F0000310700C9B3C81000310861DE6
:1008400003140318242C282C8312031386152B2C35
:1008500083120313861106100B117A08013EF00073
:100860007008FA0072088A00710E8300FE0E7E0E78
:10087000090083120313AB006430F3000030F4006E
:100880002B08A400A5012408F5002508F6000A128B
:100890008A11C0240A128A11730883120313A60056
:1008A0002608A7006430F3000030F4002B08A400F1
:1008B000A5012408F5002508F6000A128A11292549
:1008C0000A128A11730883120313A6002608A800CF
:1008D0000A30F3000030F4002808A400A501240821
:1008E000F5002508F6000A128A11C0240A128A119E
:1008F000730883120313A6002608A9000A30F30028
:100900000030F4002B08A400A5012408F5002508F8
:10091000F6000A128A1129250A128A117308831215
:100920000313A6002608AA0027082D3E840083137F
:1009300000089900283083120313A400A40B9E2CF6
:10094000A12C8312031329082D3E84008313000871
:100950009900283083120313A400A40BAD2CB02CF3
:10096000831203132A082D3E840083130008990084
:10097000283083120313A400A40BBC2CBF2C080046
:1009800083120313A101F41FC62CC72CCE2CF3092C
:10099000F409F30A0319F40AA101A10AF61FD12CE4
:1009A000D22CDB2CF509F609F50A0319F60A0130F9
:1009B000F7007708A106A201A301730874040319C4
:1009C000E22CE32C1A2DA001A00AF12C0130031017
:1009D000F30DF40DFF3E031DE72C0130F7007708FF
:1009E000A007F41FF42CF52CE62C01300310A20D07
:1009F000A30DFF3E031DF62C74087602031D022D85
:100A000073087502031C052D062D0D2D7308F502C4
:100A10007408031CF603F602221401300310F40CD0
:100A2000F30CFF3E031D0E2D0130A002031D192DF6
:100A30001A2DF52C210803191E2D1F2D242DA20976
:100A4000A309A20A0319A30A2308F4002208F30049
:100A5000080083120313A101F61F2F2D302D372D0F
:100A6000F509F609F50A0319F60AA101A10AF41F0E
:100A70003A2D3B2D402DF309F409F30A0319F40A2A
:100A8000730874040319452D462D752DA001A00A85
:100A9000542D01300310F30DF40DFF3E031D4A2DBC
:100AA0000130F7007708A007F41F572D582D492D66
:100AB00074087602031D5E2D73087502031C612DF8
:100AC000622D682D7308F5027408031CF603F60204
:100AD00001300310F40CF30CFF3E031D692D0130AF
:100AE000A002031D742D752D582D21080319792D91
:100AF0007A2D7F2DF509F609F50A0319F60A76080D
:100B0000F4007508F300080083120313A501A60181
:100B1000B02D523083120313A200A20B8D2D0000C2
:100B20008312031325082007A3002108A20003183D
:100B3000A20AA51F9C2DA203831203132208A4005E
:100B40002408FF00230884000A128A119B210A123C
:100B50008A1199000130A5070318A60A0030A607DC
:100B60002008F3002108F4000A128A11EF250A1266
:100B70008A117408831203132602031DC12D730802
:100B80002502031CC42DC52D892D08000A128A11C7
:100B900064260A128A110A128A11B0260A128A11D0
:100BA0000A128A113D260A128A110A128A11132684
:100BB0000A128A110A128A1128260A128A110A12A6
:100BC0008A1199260A128A110A128A1176260A12A5
:100BD0008A110A128A1188260A128A1108007308DB
:100BE000F5007408F600FA2D0130F5070318F60A2F
:100BF0000030F607760883120313FF00750884009F
:100C00000A128A119B210A128A11003A031D092E29
:100C10000A2EF42D73087502F3007408031C740A7D
:100C20007602F400080083160313181218158316B1
:100C30000317871519308316031399009A0183123D
:100C40000313981718131816831603139816080021
:100C50003F308312031397051708F0390C389700BB
:100C60001D08F0390C389D000F3095000F309B00A7
:100C7000CF3097059D121D120800831603139F1392
:100C80001F129F12831203131F083F3980389F00E1
:100C9000C3309F051F140330F300F30B4D2E502E6D
:100CA00008007E088A007F0882000A128A115126F5
:100CB0000A128A118000840A04087D060319003490
:100CC000FF0A0319FE0A552E831603178901FF3008
:100CD0008800FF30831603138500860187100711F3
:100CE000FF30890083120313860108008312031367
:100CF000921412141215FA30831603139200831201
:100D000003138C108C1C852E862E822E8C100800CE
:100D10008B170B17831603130C17831203130C1373
:100D2000831603138C16831203138C128B160B116C
:100D30000800831603138112811101108110011123
:100D40008312031381010B11080030343134323423
:100D50003334343435343634373438343934013478
:0E0D6000831603130F178F120F120F140800C3
:04400E00D420FF3F7C
:00000001FF
