:020000040000FA
:060000000A128A110C280F
:10000800FE00030EF1000A08F2000A128A116329A1
:100018000A128A110F2883132A30FD000230FE00CD
:100028004830FF00203084000A128A1121220A1267
:100038008A11B201B301B401B501B601B701F801E3
:10004800F901FA0183010A128A11A52983120313FF
:100058000808AE002E08FA006430F3000030F400FF
:100068007A08AE00AF012E08F5002F08F6000A1234
:100078008A119F200A128A11730883120313B00091
:100088003008B5006430F3000030F4007A08AE00A0
:10009800AF012E08F5002F08F6000A128A11082170
:1000A8000A128A11730883120313B0003008B600CD
:1000B8000A30F3000030F4003608AE00AF012E0815
:1000C800F5002F08F6000A128A119F200A128A11D9
:1000D800730883120313B0003008B7000A30F30026
:1000E8000030F4007A08AE00AF012E08F5002F08A2
:1000F800F6000A128A1108210A128A11730883125B
:100108000313B0003008F9007908203E84008313F7
:100118000008AE002E08B4003708203E840000080E
:10012800AE002E08B3003508203E84000008AE005B
:100138002E08B200080083120313AB01F41FA52890
:10014800A628AD28F309F409F30A0319F40AAB0148
:10015800AB0AF61FB028B128BA28F509F609F50A3E
:100168000319F60A0130F7007708AB06AC01AD01B8
:10017800730874040319C128C228F928AA01AA0A15
:10018800D02801300310F30DF40DFF3E031DC628DF
:100198000130F7007708AA07F41FD328D428C52808
:1001A80001300310AC0DAD0DFF3E031DD5287408BA
:1001B8007602031DE12873087502031CE428E5286C
:1001C800EC287308F5027408031CF603F6022C14D5
:1001D80001300310F40CF30CFF3E031DED28013031
:1001E800AA02031DF828F928D4282B080319FD288A
:1001F800FE280329AC09AD09AC0A0319AD0A2D087C
:10020800F4002C08F300080083120313AB01F61F57
:100218000E290F291629F509F609F50A0319F60A10
:10022800AB01AB0AF41F19291A291F29F309F4098C
:10023800F30A0319F40A73087404031924292529F5
:100248005429AA01AA0A332901300310F30DF40D29
:10025800FF3E031D29290130F7007708AA07F41F7C
:1002680036293729282974087602031D3D29730881
:100278007502031C4029412947297308F5027408AF
:10028800031CF603F60201300310F40CF30CFF3ED6
:10029800031D48290130AA02031D5329542937296F
:1002A8002B080319582959295E29F509F609F50A71
:1002B8000319F60A7608F4007508F30008000B1D08
:1002C8006629672989298312031386017808031D83
:1002D8006E296F297529340885000614F801F80A73
:1002E80086297803031D79297A298229330885000C
:1002F80086140230F0007008F8008629320885005C
:100308000615F801EC3081000B11831203130C1F42
:100318008E298F299E291F0CF000700C0F39053A81
:10032800031D972998299B291E0887009D291E08C7
:1003380088000C1372088A00710E8300FE0E7E0E70
:1003480009000A128A11D8210A128A11831203138A
:100358009F140A128A112A200A128A11831203137F
:100368009F18B729B829AD291F0CB100310C0F39D6
:10037800063A031DC029C129C6291F08C3391438E4
:100388009F00CA291F08C33918389F000F308312ED
:100398000313B100B10BCE29D129831203139F1483
:1003A800AD290A128A110C280A128A1109220A1286
:1003B8008A110A128A1152220A128A110A128A1101
:1003C800F2210A128A110A128A1130220A128A119B
:1003D8000A128A113D220A128A1108008316031391
:1003E8009F131F129F12831203131F083F394038AF
:1003F8009F001F08C33914389F002130F300F30B06
:10040800032A831203131F1408006030831603178E
:1004180089008801831603138501860187018801F5
:10042800033089008312031385018601870188013F
:1004380008007E088A007F0882000A128A111D229D
:100448000A128A118000840A04087D060319003400
:10045800FF0A0319FE0A212A831603138112811148
:10046800011581140114EC308312031381000B1160
:1004780008008B170B17831603130C17831203132B
:100488000C138B160B1108003F3406345B344F34C1
:1004980066346D347D3407347F3467348316031330
:0A04A8000F178F160F120F14080033
:04400E00C430FF3F7C
:00000001FF
