:060000000A128A11142906
:100008007330030EF4000B191C200B181020740E0B
:100018008300F30E730E090003138312861C850AEE
:10002800061C85030508F200002187000B10080054
:10003800031383123D3081000B11F00A7008143C41
:10004800031D2B28F001F10A71080021880008001F
:100200008A010A140F3982073F3406345B344F34B5
:1002100066346D347D3407347F346F3477347C3406
:1002200039345E34793471341A21312138214B212B
:1002300045211929031783168801890103138316A1
:10024000F030850087018801861406148113951407
:100250001514031383123F3085018700880089013C
:100260000800031383160F178F160F120F140800C0
:1002700003138316811281110115811401140313D4
:1002800083123D3081000B1108008B178B160B1168
:100290008B150B1008000313831696141614031302
:1002A000831206080B10080075080021870008005B
:1002B00003117508080203190914031988010319A9
:0402C0003F210800D2
:100430008316031788018901831603138501FF3092
:10044000860087018801831203130030850087002E
:100450008800061C3422861C3B22061D4222861D73
:100460004922061E5022292A061C342A850A0030F9
:10047000051A85000800861C3B2A85030F30851A63
:1004800085000800061D422A870A0030071A8700E7
:100490000800861D492A87030F30871B8700080044
:0C04A000061E502A050807078800080007
:04400E00C430FF3F7C
:00000001FF
