:020000040000FA
:060000000A128A110C280F
:10000800FE00030EF1000A08F2000A128A115A29AA
:100018000A128A110F2883132A30FD000130FE00CE
:10002800F630FF00203084000A128A11CC210A120F
:100038008A1183010A128A11DB2983120313050826
:10004800AF002F08FA006430F3000030F4007A089B
:10005800AF00B0012F08F5003008F6000A128A1127
:1000680096200A128A11730883120313B10031080B
:10007800B5006430F3000030F4007A08AF00B00136
:100088002F08F5003008F6000A128A11FF200A121C
:100098008A11730883120313B1003108F7000A307C
:1000A800F3000030F4007708AF00B0012F08F50026
:1000B8003008F6000A128A1196200A128A1173086B
:1000C80083120313B1003108F8000A30F30000303E
:1000D800F4007A08AF00B0012F08F5003008F600E8
:1000E8000A128A11FF200A128A1173088312031355
:1000F800B1003108F9007908203E84008313000814
:10010800AF002F08B4007808203E84000008AF0034
:100118002F08B3003508203E84000008AF002F08E0
:10012800B200080083120313AC01F41F9C289D2819
:10013800A428F309F409F30A0319F40AAC01AC0A78
:10014800F61FA728A828B128F509F609F50A031902
:10015800F60A0130AA002A08AC06AD01AE01730800
:1001680074040319B828B928F028AB01AB0AC728CA
:1001780001300310F30DF40DFF3E031DBD280130BF
:10018800AA002A08AB07F41FCA28CB28BC280130CC
:100198000310AD0DAE0DFF3E031DCC28740876028A
:1001A800031DD82873087502031CDB28DC28E32804
:1001B8007308F5027408031CF603F6022D140130C7
:1001C8000310F40CF30CFF3E031DE4280130AB02CE
:1001D800031DEF28F028CB282C080319F428F5284C
:1001E800FA28AD09AE09AD0A0319AE0A2E08F400C3
:1001F8002D08F300080083120313AC01F61F05292C
:1002080006290D29F509F609F50A0319F60AAC01BC
:10021800AC0AF41F102911291629F309F409F30A65
:100228000319F40A7308740403191B291C294B29A0
:10023800AB01AB0A2A2901300310F30DF40DFF3E80
:10024800031D20290130AA002A08AB07F41F2D2915
:100258002E291F2974087602031D34297308750294
:10026800031C372938293E297308F5027408031C32
:10027800F603F60201300310F40CF30CFF3E031DE5
:100288003F290130AB02031D4A294B292E292C088E
:1002980003194F2950295529F509F609F50A0319B3
:1002A800F60A7608F4007508F30008000B1D5D29AE
:1002B8005E2980298312031388010908031D652913
:1002C80066296E293408870008140130F000700888
:1002D80089077D290903031D7229732977293308A2
:1002E8008700881469293208870008150908023E22
:1002F8008900EC3081000B110B1C83298429952976
:1003080083120313061889298A298E290130F000DF
:100318007008850786189129922994290130850249
:100328000B1072088A00710E8300FE0E7E0E090003
:100338008316031789018801831603138501033087
:1003480086008701880108308900811303309500F1
:1003580083120313850187018801890108000A12A5
:100368008A119C210A128A110A128A110A220A1277
:100378008A110A128A1100220A128A110A128A1193
:10038800E9210A128A1108007E088A007F08820083
:100398000A128A11C8210A128A118000840A0408E4
:1003A8007D0603190034FF0A0319FE0ACC290A1234
:1003B8008A11B3210A128A110A128A1121200A12FB
:1003C8008A11E0290A128A110C2883160313811254
:1003D8008111011581140114EC308312031381007B
:1003E8000B1108003F3406345B344F3466346D34E7
:1003F8007D3407347F3467348B178B160B118B15BC
:1004080003308316031396000B100800831603139A
:0A0418000F140F178F160F120800C3
:04400E00C430FF3F7C
:00000001FF
