:060000000A128A11142906
:10000800F500030EF6000B1922200C1819208C1885
:100018001220760E8300F50E750E09000313831265
:10002800FF3092008C10890A080003138312853070
:100038008F00EE308E000C10850A0800031383121F
:10004800063081000B118801091808004D18302866
:100058005008870008143428510887008814342869
:100068004D080F39CD0A080008163A2840080F39FC
:10007800C00A08003B0887008816422820080F3964
:04008800A00A0800C2
:100200008A010A140F3982073F3406345B344F34B5
:1002100066346D347D3407347F346F3477347C3406
:1002200039345E34793471342B214B2152215F21D2
:100230006D213C211C211A290508CC004C080F39DE
:10024000CE004C0E0F39CF004E080021D0004F08D1
:100250000021D100080003178316880189010313C8
:1002600083168501870188018901031383128501A3
:100270008701880189010800031383128B170B176C
:100280008B160B11031383160C148C140313831297
:100290000C108C100800031383160F178F120F1207
:1002A0000F140800031383168112811101118110AC
:1002B000011003138312063081000B110800031391
:1002C00083121014901010169016031383128530A9
:1002D0008F00EE308E000C100800031383121215ED
:1002E0001217921612169215921492150313831276
:1002F000FF3092008C1008000313831681128111C5
:1003000001158114011403138312FA3081000B11BB
:100310000800880181131514951415150313831211
:100320008501870188010800031383160F178F16B4
:100330000F120F1408008B178B150B108B160B1157
:10034000080003138316161496141615031383124C
:100350000B100800031383168112811101158114FB
:0E036000011403138312FA3081000B11080000
:04400E00C430FF3F7C
:00000001FF
