:060000000A128A113429E6
:10000800F000030EF1000B19D6200C18CB208C1829
:10001800C4200B181420710E8300F00E700E090016
:100028000B10061822205A183328DA1838285A19BB
:100038005C28DA1980285A1AA028080001305A1AB0
:1000480031281030DA19312808305A19312804308B
:10005800DA18312802305A183128DA0008008601E7
:100068000030A700612208008618422806194F2888
:10007800860106172E08A700612208002E08153CE5
:100088005B184928031DAE0A031D5B14031D4E2887
:100098000A30AE0008002E08093CDB185628031D5C
:1000A800AE03031DDB14031D5B281430AE000800EB
:1000B8008618662806197328860106162C08A700D4
:1000C800612208002C08153C5B186D28031DAC0A3A
:1000D800031D5B14031D72280A30AC0008002C08AD
:1000E800093CDB187A28031DAC03031DDB14031D30
:1000F8007F281430AC00080086188C280619992827
:1001080086010616861606170030A7006122080029
:1001180085018601D701D8010330A400A500A600F7
:100128008030D8000130D70008002108AC00220830
:10013800AD002308AE0008008618AA280619B728BB
:10014800860186162D08A700612208002D08153C97
:100158005B18B128031DAD0A031D5B14031DB628E7
:100168000A30AD0008002D08093CDB18BE28031D25
:10017800AD03031DDB14031DC3281430AD000800B4
:1001880003138312FF3092008C10D90A080003135E
:10019800831285308F00EE308E000C10A403A50367
:1001A800A603080003138312063081000B1188018F
:1001B8002018EC28A018F2282019F828A019FE28E1
:1001C800201A0429A01A0A29201B1029A01B162965
:1001D8004F08870008140230A0001C295308870024
:1001E80088140430A0001C2950088700081508301E
:1001F800A0001C295408870088151030A0001C296D
:100208005108870008162030A0001C2955088700CF
:1002180088164030A0001C29520887000817803033
:10022800A0001C295608870088170130A0001C2947
:0402380000000800BA
:100240008A010A140F3982073F3406345B344F3475
:1002500066346D347D3407347F346F3477347C34C6
:1002600039345E34793471348322C722CE22DB22C2
:10027000E922AC22BD229C22FB211D223F22861CAA
:100280005B10861CDB10571C5E21D718682157199C
:100290007321D7197F21571A8921D71A9321571B08
:1002A0009C21D71BA8215818B721D818C12158194B
:1002B000CA21D819D621D81BE5213C2985018611F0
:1002C0002108A400A5002207A6000330D700F929C1
:1002D0000510851305158515051706302402053010
:1002E0000319D700F929D9180511D91C0515851549
:1002F00005170330240209300319D700F9298514A2
:100300000511851505170030240211300319D70097
:10031000F929850186112208A500A6002307A4005B
:100320002130D700F9290514851605170630250256
:1003300041300319D700F929D9188512D91C85161F
:10034000051405170330250281300319D700F92958
:100350000514051685120517003025020130031912
:10036000D7000030250201300319D800F929850192
:1003700086112308A400A6002207A5000230D80099
:10038000F92905148515861506302602043003194F
:10039000D800F929D9188611D91C86150514851598
:1003A0000330260208300319D800F92986110514F4
:1003B000851785150030260200300319D80000305B
:1003C000260200300319D700F929051485150517F1
:1003D0000030260200300319EE29F9292C08A1006B
:1003E0002D08A2002E08A3000030D8000030D7004E
:1003F000F9290000080024080F39AF00240E0F3936
:10040000B0002F082021B70030082021B8002408B0
:10041000A800C701CB010A30A8020318CB0A0318B1
:100420000C2AA8072808C700CF01D3014B082021B8
:10043000D30047082021CF00080025080F39B1005C
:10044000250E0F39B20031082021B90032082021D1
:10045000BA002508A900C801CC010A30A902031876
:10046000CC0A03182E2AA9072908C800D001D401F4
:100470004C082021D40048082021D000080026087C
:100480000F39B300260E0F39B40033082021BB000A
:1004900034082021BC002608AA00C901CD010A3079
:1004A000AA020318CD0A0318502AAA072A08C9006D
:1004B000D101D5014D082021D50049082021D100C6
:1004C000080027080F39B500270E0F39B600350888
:1004D0002021BD0036082021BE002708AB00CA013C
:1004E000CE010A30AB020318CE0A0318722AAB07FA
:1004F0002B08CA00D201D6014E082021D6004A0896
:100500002021D200080003178316880189010313F4
:100510008316850187018801890106148614061552
:1005200086110612861206130313831285018601B3
:1005300087018801890108000A30A100AC000C3055
:10054000A200AD000F30A300AE00D7010130DA00E9
:100550000030A70061220800031383128B170B17CA
:100560008B150B108B160B11031383160C148C14A4
:10057000031383120C108C10080003138316161437
:10058000961416150313831206080B1008000313A4
:1005900083160F178F120F120F1408000313831600
:1005A0008112811101118110011003138312063091
:1005B00081000B1108000313831210149010101601
:1005C00090160313831285308F00EE308E000C10CE
:1005D00008000313831212151217921612169215A1
:1005E0009214921503138312FF3092008C100800AE
:04400E00C430FF3F7C
:00000001FF
