:060000000A128A11142906
:100200008A010A140F3982073F3406345B344F34B5
:1002100066346D347D3407347F346F3477347C3406
:1002200039345E3479347134232143213421061C5E
:100230004A21861C51210B1D17293F21880A0918C4
:100240000910582117290317831688018901031300
:100250008316F030870188008901031383123F3031
:100260008700880189010800031383168112811118
:10027000011581140110031383123F2108000C3073
:1002800081000B110800031383160F138F160F1232
:100290000F140800061C4A29F00A70080021870084
:1002A0000800861C5129F00370080021870008000F
:1002B00003117008080203190914031988010319AE
:0402C0003F210800D2
:100430008316031788018901831603138501FF3092
:10044000860087018801831203130030850087002E
:100450008800061C3422861C3B22061D4222861D73
:100460004922061E5022292A061C342A850A0030F9
:10047000051A85000800861C3B2A85030F30851A63
:1004800085000800061D422A870A0030071A8700E7
:100490000800861D492A87030F30871B8700080044
:0C04A000061E502A050807078800080007
:04400E00C430FF3F7C
:00000001FF
