:060000000A128A11142906
:10000800F500030EF6000B1918200B181020760EB9
:100018008300F50E750E090003138312061C850A6A
:10002800861C85030B10080003138312FA30810025
:100038000B11880121182A28A1182E2821193228E5
:10004800A11936282408870008143A2825088700AB
:1000580088143A282908870008153A282A088700AA
:1000680088153A282B08870008163A2821080F39DE
:04007800A10A0800D1
:100200008A010A140F3982073F3406345B344F34B5
:1002100066346D347D3407347F346F3477347C3406
:1002200039345E3479347134512166217C216D2159
:1002300073210508A000212128210508AC002F21E9
:10024000192920080F39A200200E0F39A300080039
:1002500022080021A40023080021A5000800A6010F
:10026000A701A8016430AC020318A80A03183329B7
:10027000AC070A30AC020318A70A03183A29AC07E6
:100280002C08A60044210800A901AA01AB012808F6
:100290000021AB0027080021AA0026080021A900A0
:1002A000080003178316880189010313831685014B
:1002B00006148614870188018113151495140313FD
:1002C0008312850187018801AC010800031383169E
:1002D0000F178F160F120F1408008B178B150B10AA
:1002E0008B160B11080003138316161496140313B0
:1002F000831206080B100800031383168112811164
:1003000001158114011403138312FA3081000B11BB
:020310000800E3
:100430008316031788018901831603138501FF3092
:10044000860087018801831203130030850087002E
:100450008800061C3422861C3B22061D4222861D73
:100460004922061E5022292A061C342A850A0030F9
:10047000051A85000800861C3B2A85030F30851A63
:1004800085000800061D422A870A0030071A8700E7
:100490000800861D492A87030F30871B8700080044
:0C04A000061E502A050807078800080007
:04400E00C430FF3F7C
:00000001FF
